:020000040800F2
:1000000098190020290200080F0E0008A90D000809
:100010000D0E00082305000845110008000000002F
:10002000000000000000000000000000991000081F
:100030002505000800000000110E00089B100008B4
:10004000430200084302000843020008430200087C
:10005000430200084302000843020008430200086C
:10006000430200084302000843020008430200085C
:10007000430200084302000843020008430200084C
:10008000430200084302000843020008430200083C
:10009000430200084302000843020008430200082C
:1000A000430200084302000843020008430200081C
:1000B000430200084302000843020008430200080C
:1000C00043020008430200084302000843020008FC
:1000D00043020008430200084302000843020008EC
:1000E00043020008430200084302000843020008DC
:1000F00043020008430200084302000843020008CC
:1001000043020008430200084302000843020008BB
:1001100043020008430200084302000843020008AB
:10012000430200084302000843020008430200089B
:10013000430200084302000843020008430200088B
:10014000430200084302000843020008430200087B
:10015000430200084302000843020008430200086B
:10016000430200084302000843020008430200085B
:100170004302000843020008430200080000000098
:10018000430200084302000800F002F800F03CF8C7
:100190000AA090E8000C82448344AAF10107DA45E2
:1001A00001D100F031F8AFF2090EBAE80F0013F0F8
:1001B000010F18BFFB1A43F0010318476414000035
:1001C00084140000103A24BF78C878C1FAD85207C6
:1001D00024BF30C830C144BF04680C6070470000C1
:1001E0000023002400250026103A28BF78C1FBD840
:1001F000520728BF30C148BF0B6070471FB501F0E0
:10020000E9F91FBD10B510BD00F051F91146FFF717
:10021000F5FF01F023F900F06FF903B4FFF7F2FFE7
:1002200003BC00F077F900000948804709480047FF
:10023000FEE7FEE7FEE7FEE7FEE7FEE7FEE7FEE796
:10024000FEE7FEE704480549054A064B70470000F3
:100250003511000889010008980500209819002030
:10026000981500209815002053EA020C00F06980D0
:100270002DE9F04B4FF00006002B1FBFB3FA83F5BA
:1002800003FA05F424FA05F65E4012BF1643B2FAEB
:1002900082F502FA05F4C5F120051EBF22FA05FC1D
:1002A00044EA0C04203556EA044C4FEA144418BFC3
:1002B000641C4FF000084FF00009904271EB030CF2
:1002C00039D3002919BFB1FA81F701FA07F6B0FA5C
:1002D00080F700FA07F6C7F120071EBF20FA07FCD7
:1002E00046EA0C062037B6FBF4FCA7EB0507103FE7
:1002F00007F01F0BCBF120060CFA0BFB2CFA06F6CD
:1003000044BFB3460026202FA4BF5E464FF0000B2B
:100310005BEA060C08BF4FF0010B19EB0B09ABFBB6
:10032000027C48EB0608C01B06FB02CC0BFB03CC8F
:1003300071EB0C01C1E70B46024641464846BDE859
:10034000F08B13B54FF000004FF00001AFF30080C9
:10035000BDE81C4070470022CBB210F8011B994247
:1003600000D1421E0029F8D110467047032A40F2FE
:10037000308010F0030C00F0158011F8013BBCF147
:10038000020F624498BF11F801CB00F8013B38BF5F
:1003900011F8013BA2F1040298BF00F801CB38BF6D
:1003A00000F8013B11F0030300F04F80083AC0F061
:1003B000088051F8043B083A51F804CBA0E8081033
:1003C000F5E7121D5CBF51F8043B40F8043BAFF366
:1003D0000080D20724BF11F8013B11F801CB48BFC0
:1003E00011F8012B24BF00F8013B00F801CB48BFF6
:1003F00000F8012B70474FF0000200B513469446F9
:100400009646203922BFA0E80C50A0E80C50B1F16C
:100410002001BFF4F7AF090728BFA0E80C5048BF80
:100420000CC05DF804EB890028BF40F8042B08BF1E
:10043000704748BF20F8022B11F0804F18BF00F81A
:10044000012B704770477047704710B5203AC0F0D5
:100450000B80B1E81850203AA0E81850B1E81850C5
:10046000A0E81850BFF4F5AF5FEA027C24BFB1E802
:100470001850A0E8185044BF18C918C0BDE8104073
:100480005FEA827C24BF51F8043B40F8043B08BF7C
:100490007047D20728BF31F8023B48BF11F8012B43
:1004A00028BF20F8023B48BF00F8012B7047754673
:1004B00000F02CF8AE4605006946534620F00700D0
:1004C000854618B020B5FFF7BDFEBDE820404FF0CF
:1004D00000064FF000074FF000084FF0000B21F02E
:1004E0000701AC46ACE8C009ACE8C009ACE8C009FB
:1004F000ACE8C0098D46704710B50446AFF30080E4
:100500002046BDE81040FFF788BE00000048704755
:100510003805002001491820ABBEFEE72600020086
:100520007047FEE77047000070B5044600F014F90C
:100530000546601C02D004480078044400F00CF921
:10054000401BA042FAD370BD000000202DE9F84FF7
:10055000DFF8BCA10022012503264FF00F090AF1A4
:10056000040BAAF1040E00BF0B6805FA02F4234045
:10057000A34270D10F7907F00307012F01D0022F9A
:1005800016D187684FEA420806FA08FC27EA0C07EA
:10059000D1F80CC00CFA08FC4CEA070CC0F808C0F3
:1005A0004768A7430C79C4F3001494403C4344606B
:1005B0000C79E443A4070AD0C4684FEA420C06FA57
:1005C0000CF7BC438F6807FA0CF72743C7600C7918
:1005D00004F00304022C12D1D40800EB840CDCF8E4
:1005E00020405707FF0E09FA07F824EA0804D1F85B
:1005F000108008FA07F848EA0408CCF8208004685C
:100600004FEA420C06FA0CF7BC430F7907F00307D8
:1006100007FA0CF7274307604C6814F4403F70D08A
:100620003C4C276847F480472760246822F0030782
:1006300004F480440094384C07EB040CDCF80848C0
:1006400097074FEA177809FA08F7BC43334FB842C7
:1006500002D1002724E054E0314FB84201D10127F4
:100660001EE0304FB84201D1022719E02E4FB842A8
:1006700001D1032714E02D4FB84201D104270FE028
:100680002B4FB84201D105270AE02A4FB84201D1C9
:10069000062705E0284FB84201D1072700E00827C8
:1006A00007FA08F72743CCF80878DAF800405746ED
:1006B000D1F804C09C435FEACC2C00D51C433C60BD
:1006C000DBF800405F46D1F804C09C435FEA8C2C05
:1006D00000D51C433C60DEF800407746D1F804C0EA
:1006E0009C435FEA8C3C00D51C433C60084F083FAC
:1006F0003C68D1F804C09C435FEACC3C00D51C4365
:100700003C60521C102AFFF42FAFBDE8F88F0000A8
:10071000083C0140443802400030014000000240E3
:100720000004024000080240000C02400010024099
:100730000014024000180240001C0240426921EAF5
:1007400002030A4043EA0241816170470AB18161B4
:1007500070470904FBE7000001488068704700000B
:1007600000000020024881680278114481607047CF
:10077000000000200B4810B5016841F400710160D1
:10078000016841F480610160016841F48071016099
:10079000032000F061F80F2000F006F800F024F8C4
:1007A000002010BD003C024070B50D4D04464FF4D2
:1007B0007A712878B1FBF0F00A490968B1FBF0F0D2
:1007C00000F0DEFA48B9102C07D200222146501E54
:1007D00000F022F800206C6070BD012070BD0000A8
:1007E000000000200C0000200A4808B5016841F410
:1007F00080410160006800F4804000900548001FBF
:10080000016841F080510160006800F08050009064
:1008100008BD000044380240F0B40E4B1B680C4683
:10082000C3F30223C3F10705042D00D90425191DC4
:10083000072901D2002300E0DB1E012606FA05F19C
:10084000491E214099409E40761E16403143F0BC1F
:1008500000F0F3BD0CED00E0064900F00702086867
:100860004FF6FF03184040EA0220034A1043086095
:10087000704700000CED00E00000FA052DE9F0479C
:100880000E46050065D0DFF81481D8F80000F7B2F5
:1008900000F00700B04207D288F80070D8F80000D6
:1008A00000F00700B04254D128683D4C810712D5B2
:1008B000400703D5206840F4E05020602878000706
:1008C00003D5206840F4604020602068A96820F0CB
:1008D000F000084320602878C0072DD030496868B0
:1008E0000839012812D0022813D0032811D0096832
:1008F000890700292DDA216821F0030101432160D5
:10090000FFF72AFF814641F2883A0EE00968890321
:10091000EFE709688901ECE7FFF71EFFA0EB09018B
:10092000514502D90320BDE8F0872068696800F0CE
:100930000C00B0EB810FEFD1D8F80010404601F069
:100940000701B14207D90770006800F00700B04204
:1009500001D00120E7E72878400705D52068E9683D
:1009600020F4E050084320602878000706D520686E
:10097000296920F4604040EAC100206000F018F8C6
:100980002168084AC1F30311515CC8400649086058
:1009900006480068FFF708FF0020C4E7003C02405B
:1009A00008380240DE1500080C000020040000207A
:1009B000154810B5006810F00C02144813D0144903
:1009C000042A0FD0082A0ED10F4C241F2268236856
:1009D00002F03F025B0207D52068C0F38810A0FB3D
:1009E000010106E0084610BD2168C1F38811A1FB92
:1009F00000010023FFF738FC2168C1F30141491CC5
:100A00004900B0FBF1F010BD083802400024F400AA
:100A1000001BB7002DE9F84F04006ED02078DFF8F6
:100A20004C93C007A9F104054AD009F104000168FC
:100A3000C1F38101012908D00068C0F381000228B8
:100A40000AD1D9F80000400206D52868800337D5BE
:100A500060680028E1D033E06068B0F5803F10D0D6
:100A6000B0F5A02F286810D020F4803028602868C6
:100A700020F4802028606068A8B1FFF76DFE06466C
:100A80000DE0286840F48030F4E740F480202860CE
:100A9000F7E700BFFFF760FE801B642873D8286863
:100AA0008003F7D50CE0FFF757FE064605E000BFD0
:100AB000FFF752FE801B6428F0D828688003F7D423
:100AC0002078DFF8AC8280074FF0000A3ED5A748B7
:100AD000001D016811F00C0F08D00068C0F3810000
:100AE00002280BD1D9F80000400207D428688007FB
:100AF00016D5E068012800D112E033E1E068B8B112
:100B00000120C8F80000FFF727FE064605E000BFF9
:100B1000FFF722FE801B0228C0D828688007F7D57F
:100B20002868216920F0F80040EAC10028600DE043
:100B3000C8F800A0FFF710FE064604E0FFF70CFE21
:100B4000801B02281FD828688007F7D42078000768
:100B500022D5864F87486169703771B101210160E4
:100B6000FFF7FAFD064604E0FFF7F6FD801B0228BA
:100B700009D838688007F7D50EE0C0F800A0FFF765
:100B8000EBFD064605E082E0FFF7E6FD801B02284C
:100B90007DD838688007F7D42078400768D5DFF81B
:100BA000CCB100270BF13C0BDBF80000C0000BD4EC
:100BB000DBF8001041F08051CBF80010DBF80000AA
:100BC000012700F0805000906B4E3068C00510D4B3
:100BD000306840F480703060FFF7BEFD009005E0A3
:100BE000FFF7BAFD0099401A022850D83068C005B6
:100BF000F6D55E4EA0686C3601280FD00528306807
:100C000010D020F001003060306820F00400306027
:100C1000A068B8B1FFF7A0FD00900FE0306840F089
:100C20000100F4E740F004003060F7E7FFF794FDBF
:100C30000099411A41F28830814266D830688007B5
:100C4000F4D50EE0FFF788FD009007E0FFF784FD84
:100C50000099411A41F28830814256D830688007A5
:100C6000F4D42FB1DBF8001021F08051CBF8001044
:100C7000A069C8B33D49091D0968C1F38101022972
:100C80004AD00228504607D0C8F8600000E03CE097
:100C9000FFF762FD04463BE04746C8F86000FFF7F7
:100CA0005BFD064605E000BFFFF756FD801B0228EE
:100CB0002BD828688001F7D4D4E907010843A16A3A
:100CC0002E4A490802EB0141626A41EA8211084357
:100CD00094F82C1040EA0161C9F800100120386630
:100CE000FFF73AFD044606E03EE000BFFFF734FDA3
:100CF000001B022809D828688001F7D534E000BF1E
:100D0000FFF72AFD001B022802D90320BDE8F88F57
:100D100028688001F4D427E00128F7D0D9F8000032
:100D2000E26900F4800191421CD1226A00F03F0187
:100D3000914217D147F6C071626A0140B1EB821F40
:100D400010D1A26A4FF0FF3300F4403103EB52029E
:100D5000B1EB024F06D194F82C1000F07060B0EBAC
:100D6000016F01D00120D1E70020CFE70438024015
:100D700000004742800E4742007000400000FFFF25
:100D800010B5401EB0F1807F01D3012010BD4FF09F
:100D9000E02460610F21601700F04FFB0020A0618C
:100DA00007202061002010BDFEE7000070B586B06E
:100DB00014216846FFF71FFB12480024016841F028
:100DC00001010160016801F001010591016841F034
:100DD0008001016000680C4E00F080004FF4406517
:100DE0000590224629463046FFF7B0FC01200095C9
:100DF000CDE90104694630460394FFF7A7FB06B02E
:100E000070BD000030380240001C0240FEE7FEE7E3
:100E1000704700002DE9F04107460B4815460E4685
:100E20000078532801D000F08FF9EFF311842020CF
:100E300080F311882A463146384600F007F8E1B2BF
:100E400081F31188BDE8F0811000002070B50E46D6
:100E5000144900EB400001EBC0051446E86A183560
:100E600020B101280FD0022805D113E0284600F058
:100E70009DF9A04201D2002411E0224631462846C5
:100E800000F0BAFA0BE0284600F090F9A042F4D244
:100E90000446F2E73146284600F081FA044620462F
:100EA00070BD0000100000200FB408B504A9009127
:100EB0006A46039900F004F801B05DF814FB0000E5
:100EC0002DE9F04798B0814607A8029040204FF0E6
:100ED00000080390CDF8108092460C464046CDE9BC
:100EE000058900BF14F8011B002972D0252908D0FC
:100EF00002A800F035FA05980028F3DA18B0BDE82A
:100F0000F087002001212278232A1ED02B2A19D015
:100F10002D2A02D0302A08D102E040F0010001E081
:100F200040F00200641C0029EDD100212278A2F1DA
:100F300030030A2B0CD201EB810102EB4101303965
:100F4000641CF3E740F00400ECE740F00800E9E738
:100F50000026D2B235462E2A19D114F8012F2A2A9A
:100F600008D1DAF800200126131DCAF80030641CED
:100F700015680CE02278A2F130030A2B07D205EBAA
:100F80008503012602EB4305641C303DF2E722781D
:100F90006C2A0DD0682A0BD0702A58D00BDC252A79
:100FA00061D0582A2ED0632A0CD0642A5FD111E078
:100FB00014F8012FECE7732A33D0752A19D0782A58
:100FC00055D11FE0DAF80000011DCAF800100178C1
:100FD0004AE04EE0DAF80020131DCAF80030166827
:100FE000CDE900102B460A22314602A800F0EAF8AB
:100FF0003DE0DAF80020131DCAF8003016682B46D1
:101000000A2207E0DAF80020131DCAF8003016683B
:101010002B461022CDE90010314602A800F036F927
:1010200025E0DAF80000011DCAF8001007680FB9C2
:1010300017A7002617F8011BC9B106B1BDB102A858
:1010400000F08EF905986D1E0028F3DA0FE0DAF84B
:1010500000000822011DCAF800100168CDE900282F
:1010600013461022D9E7252102A800F079F9641C63
:1010700041E700287FF742AF049820B1024607A954
:101080004846FFF7C7FEDDE904100844059035E740
:10109000284E554C4C2900007047FFF763BB0000F9
:1010A00030B593B030216846FFF7A5F914210CA89C
:1010B000FFF7A1F91D480025016841F0805101604A
:1010C000006800F0805011901948016841F4804197
:1010D00001600068022400F480401190012000901B
:1010E000000401908001CDE9064006200890A82068
:1010F000CDE9090404200B906846FFF78BFC08B18A
:1011000072B6FEE70CA90F2081E831004FF4A05021
:101110000F904FF48050109005210CA8FFF7AEFB04
:10112000002801D072B6FEE713B030BD403802404F
:10113000007000400248016841F47001016070478E
:1011400088ED00E0FEE7000010B5134CA821204612
:10115000FFF751F903202061606110A0A06104F144
:10116000A800E0614FF4806020620020A06260620D
:10117000E0620AA1216604F5956161668021A1669D
:101180002067E06660670849C0F10F028A5C22545C
:10119000401C1028F8D310BD100000205465726D5B
:1011A000696E616C00000000FE1500080269C168EC
:1011B0008A4203D88068401A104400E0501A401E4A
:1011C000704700002DE9FC5F0E008146DDE90C4709
:1011D000C6F1000098469346824600D40846012591
:1011E00003E000BF90FBFBF06D1C5845FADAA84500
:1011F00000D9454624B1002E01DB780700D5641ED6
:10120000B80702D5B8F1000F0FD0F8070DD164B1BF
:10121000A5420AD220214846641E00F0A1F8D9F860
:101220000C000028F3DABDE8FC9FD9F80C00002878
:10123000F9DB002E02DA56462D2102E0780707D5A9
:101240002B21484600F08CF8D9F80C000028EADB86
:1012500007F0030002280FD1B8F1000F0CD15CB1E8
:10126000A54209D230214846641E00F079F8D9F829
:101270000C000028F3DAD6E7CDE9004743465A468A
:101280003146484600F002F8CDE700002DE9F84F5E
:101290008246DDE90A4B0126984691460D460846EE
:1012A000374602E0B0FBF9F07F1C4845FAD2B8455A
:1012B00000D947465FEACB7017D1B4B15FEA8B70B3
:1012C00002D5B8F1000F02D0202000900BE03020B2
:1012D000FBE75046641E009900F042F8DAF80C0073
:1012E000002838DB0CB1A742F3D3DAF80C00002851
:1012F00031DB00BFB8F1010F02D9A8F1010803E00A
:10130000B5FBF6F0484502D306FB09F6F2E7DFF835
:101310004C8000BFB5FBF6F000FB165518F8001026
:10132000504600F01DF8DAF80C00002803DBB6FB8D
:10133000F9F6002EEED15FEACB700CD0002C0AD06B
:10134000A74208D220215046641E00F009F8DAF8BE
:101350000C000028F2DABDE8F88F00000F16000834
:1013600010B50446D4E90130421C934205D32368EA
:101370001954A260E068401CE060D4E90102824296
:1013800009D121682069FFF745FDA168884203D093
:101390004FF0FF30E06010BD0020A06010BD2DE9CF
:1013A000F047C4681746894606464FF00008306982
:1013B000A04201D9051B02E0B168201A0D1AB068DD
:1013C0006D1E001BA84200D80546BD4200D33D4615
:1013D00070682A4620444946FEF7C8FFB0687F1B64
:1013E0002C44A844A944A04200D10024F460002F5A
:1013F000DDD14046BDE8F0872DE9F041044688463E
:10140000D4E90207C51BE168606816460844B54286
:1014100006D94146FEF7AAFFB819E060BDE8F081A1
:101420002A464146FEF7A2FF761B08EB050132462D
:101430006068FEF79BFFE660F0E70907090E0028E9
:1014400004DB00F1E02080F80014704700F00F008A
:1014500000F1E02080F8141D70470000FFF78AF9C2
:10146000FFF71EFEFFF7A2FC2A4D4FF480644FF4F5
:10147000FA7621462846FFF761F92F2126A0FEF7CC
:101480006AFF28B12F2124A0FEF765FF401C00E071
:1014900021A00246632325A10020FFF705FD2F218F
:1014A0001DA0FEF758FF28B12F211BA0FEF753FF08
:1014B000401C00E018A00246642327A10020FFF78B
:1014C000F3FC2F2114A0FEF746FF28B12F2112A014
:1014D000FEF741FF401C00E00FA00246652327A154
:1014E0000020FFF7E1FC2F210BA0FEF734FF28B10D
:1014F0002F2109A0FEF72FFF401C00E006A00246A6
:10150000662329A10020FFF7CFFC3046FFF70CF837
:10151000AFE70000001C02402E2E2F436F72652F94
:101520005372632F6D61696E2E6300001B5B323B4B
:1015300033366D5B44454255472025732025645D55
:101540001B5B323B33366D546869732069732044EA
:10155000454255470D0A00001B5B306D5B494E4606
:101560004F2025732025645D1B5B306D54686973C3
:1015700020697320494E464F0D0A00001B5B323B29
:1015800033336D5B5741524E2025732025645D1B1C
:101590005B323B33336D5468697320697320574164
:1015A000524E494E470D0A001B5B323B33316D5B97
:1015B0004552522025732025645D1B5B323B33313D
:1015C0006D54686973206973204552524F520D0A59
:1015D000000000004FF04070E1EE100A704700007C
:1015E0000000000000000102030406070809303172
:1015F00032333435363738394142434445460000AA
:1016000000000000545452205245474745530030D3
:101610003132333435363738394142434445460058
:10162000401600080000002010000000C40100085F
:10163000501600081000002088190000E001000882
:101640000100000010000000000000000024F40071
:040000050800018965
:00000001FF
